:020000040800F2
:10000000200C002085020008D9430008B53E0008F6
:10001000D5430008AD230008DD45000800000000BE
:10002000000000000000000000000000C5440008BF
:10003000B123000800000000DD430008C9440008A7
:100040009F0200089F0200089F0200089F0200080C
:100050009F0200089F0200089F0200089F020008FC
:100060009F0200089F0200089F0200089F020008EC
:100070009F0200089F0200089F0200089F020008DC
:100080009F0200089F0200089F0200080000000075
:100090000000000000000000000000009F020008B7
:1000A0009F0200089F020008E14400089F02000828
:1000B0009F0200089F0200089F0200089F0200089C
:1000C0009F0200089F0200089F0200089F0200088C
:1000D0009F0200089F0200089F0200080000000025
:1000E0009F0200089F0200089F0200080000000015
:1000F0000000000000000000000000009F02000857
:10010000000000009F0200089F0200089F020008F4
:1001100000000000000000000000000000000000DF
:100120009F0200089F0200089F0200089F0200082B
:100130009F02000800000000000000000000000016
:100140000000000000000000000000009F02000806
:100150009F0200089F0200089F0200089F020008FB
:100160009F0200089F02000800000000000000003D
:10017000000000000000000000000000000000007F
:10018000000000009F0200080000000000000000C6
:100190009F0200089F02000800F002F800F062F8D9
:1001A00014A696E8000CB244B344DA4501D100F03D
:1001B00059F8BAE80F000FA696E83000A5EB040541
:1001C00004EB0607AAEB0704A7F101074FEA151590
:1001D0004FEA3414A4F10104AC4201D300F042F818
:1001E00013F0010F18BFFB1A43F0010300F001F8F0
:1001F000DBE71847285A0000485A0000103A24BF8D
:1002000078C878C1FAD8520724BF30C830C144BF7B
:1002100004680C6070470000704700000023002451
:1002200000250026103A28BF78C1FBD8520728BF06
:1002300030C148BF0B607047662905F09E81642974
:1002400000F0F480002070471FB505F084F900F03D
:100250005FFC04000020002104F0B0FFE0601FBD3F
:1002600010B510BD00F054FD1146FFF7EDFF04F08E
:10027000B7F900F072FD03B4FFF7F2FF03BC00F022
:10028000B5FD00000948804709480047FEE7FEE742
:10029000FEE7FEE7FEE7FEE7FEE7FEE7FEE7FEE736
:1002A00004480549054A064B70470000CD44000844
:1002B0009901000820060020200C002020080020C2
:1002C0002008002053EA020C00F069802DE9F04B71
:1002D0004FF00006002B1FBFB3FA83F503FA05F4B5
:1002E00024FA05F65E4012BF1643B2FA82F502FA0E
:1002F00005F4C5F120051EBF22FA05FC44EA0C04F2
:10030000203556EA044C4FEA144418BF641C4FF0E1
:1003100000084FF00009904271EB030C39D300291B
:1003200019BFB1FA81F701FA07F6B0FA80F700FABF
:1003300007F6C7F120071EBF20FA07FC46EA0C06A5
:100340002037B6FBF4FCA7EB0507103F07F01F0BA7
:10035000CBF120062CFA06F60CFA0BFB44BFB34691
:100360000026202FA4BF5E464FF0000B5BEA060C70
:1003700008BF4FF0010B19EB0B0948EB0608ABFB6C
:10038000027C06FB02CC0BFB03CCC01B71EB0C0107
:10039000C1E70B46024641464846BDE8F08B13B51F
:1003A000084318BF4FF0FF300146AFF30080BDE8AF
:1003B0001C4070470FB41CB5074B06AA7B44694626
:1003C0000090059800F08BFB0020694600F09AFB36
:1003D0001CBC5DF814FB00004507000070B5044626
:1003E00085690068C10601D5302600E02026C007D7
:1003F00007D070BDD4E9012130469047206A401CE7
:1004000020626D1EF6D570BD70B504468569007812
:10041000C00707D170BDD4E9012120209047206A90
:10042000401C20626D1EF6D570BD00002DE9F04124
:100430000646002410687529314616A510D0AFF382
:100440000080002802DA404213A507E031688A07DD
:1004500001D512A502E0490704D511A5012401E048
:10046000AFF3008000210A2206F1240709E0B0FB67
:10047000F2FCB0FBF2F302FB1C003030785418465B
:10048000491C0028F3D123462A463046BDE8F041F6
:1004900000F0B9B8000000002D0000002B000000A3
:1004A000200000002DE9F0474FF0000A894604467D
:1004B000C0F820A02046E1688847002876D025288B
:1004C00006D0D4E901219047206A401C2062F1E760
:1004D000E168204600258847C4F81CA0064600278E
:1004E000C4F818A02A2E09D0304604F05FFE38B3B5
:1004F00004EB8708303EC8F8186019E059F8041B6F
:10050000204604EB87029161E1688847012F064687
:1005100018D1E069002820DA25F020051DE0D8F880
:10052000180000EB800006EB40003038C8F81800D7
:100530002046E1688847064604F038FE0028EED1E0
:10054000012F0AD02E2E08D12046E16888477F1C53
:100550000646022F45F02005C4DBA069002803DA17
:10056000404245F00105A061E80701D025F01005E3
:10057000B6B1A6F14100192802D8203645F400652D
:100580004A463146204625604D46FFF755FE58B194
:10059000012806D0ED1D25F0070000F1080989E7C4
:1005A00004E005F1040985E730468AE7206ABDE8E2
:1005B000F0874FF0000200B5134694469646203966
:1005C00022BFA0E80C50A0E80C50B1F12001BFF40C
:1005D000F7AF090728BFA0E80C5048BF0CC05DF872
:1005E00004EB890028BF40F8042B08BF704748BFC0
:1005F00020F8022B11F0804F18BF00F8012B704734
:100600007047704770472DE9F0470D46994692466E
:10061000044600F124080168880604D5E06921F049
:100620001001216000E00120A84201DD471B00E02D
:100630000027A1697A1902EB0900081AA061207845
:10064000C00602D42046FFF7C9FE002608E0D4E920
:1006500001211AF806009047206A401C761C20628F
:100660004E45F4DB2078C0060AD52046FFF7B6FEDB
:1006700006E0D4E9012130209047206A401C206226
:10068000381EA7F10107F4DC07E0D4E9012118F8CE
:1006900005009047206A401C2062281EA5F1010534
:1006A000F3DC2046FFF7B0FE2078000602D50220DA
:1006B000BDE8F0870120FBE72DE9FF4F0C461E4601
:1006C0004FF0FF378BB0D2E90001DDF860800A906F
:1006D0008A46C1F30A5505B93D46002108464FF048
:1006E0000000BAF1000F00F4400005DA00EB8000D2
:1006F0004FF4400101EA50004FEA9059B9F1010F5F
:1007000000DDB9460A9850EA4A000ED044F610506F
:10071000A5F2FF3545432F14B8F1000F1ED07542E6
:10072000291E1EDDC9F100021CE0B8F1010F4FF0D7
:10073000000001D0302103E0F24305E02154401CC9
:10074000B042FBDB30460022002121540B99C1F856
:100750000880C1E900200FB0BDE8F08FBD1B6D1C03
:10076000DEE74A4600DA694206A800F05BFA06AB0B
:1007700093E8070003AB83E8070050460A9904F0AA
:1007800035F98DE80700A0F500501F380090039858
:10079000002D0ADD42F21F014A460844002303A946
:1007A0000390684604F09EFB09E0A0F500504A461D
:1007B0001F38002303A90390684604F0A8FB8DE8C6
:1007C00007000004000C03D04FF0FF30410800E0A8
:1007D0001046B8F1000F03D00022009215461EE02B
:1007E000751E05D400F098F9303262556D1EF9D5AA
:1007F000B3460122084302D000227F1C04E0207887
:10080000302801D100227F1E002A099784D01DE0E4
:10081000112D07DA00F080F9303262556D1C50EA74
:100820000102F5D1084302D00098C8B10EE00021C2
:10083000681E05E0235C625C63542254401E491C20
:100840008142F7DBAB46A81B401E0990002004F84C
:100850000B000B98099AC0F80880C0E9002B7AE7D2
:1008600011264FF0000857E72DE9F04F884604465F
:10087000D21D22F0070191B0D1E90001CDE90A01B2
:1008800004F07CFC02460B98C00F01D02D2007E03D
:100890002068810701D52B2002E0202101EAC00059
:1008A000032A099001D0072A05DB0346414620466A
:1008B00000F078F90BE12078800601D5E06900E0CE
:1008C0000620B8F1650F814606D0B8F1660F18D042
:1008D000B8F1670F70D131E00020B9F1110F00902D
:1008E00001DB112301E009F101030AAA01A90CA807
:1008F000FFF7E2FEDDE90C70002609F101058346F1
:1009000047E001204B4600904FF000470AAA01A99A
:100910000CA8FFF7D1FEDDE90DB00C995D4600266D
:1009200010B909F101000D18B9EB050003D4C0F1AD
:10093000FF3609F10105A5EB09002BE0B9F1010F24
:1009400001DA4FF001090020B9F1110F009048467B
:1009500001DD112300E003460AAA01A90CA8FFF754
:10096000ABFEDDE90C704D4600268346207800077B
:100970000AD4AB4500DA5D4601A8012D04DD41191A
:1009800011F8011C302907D04F4502DA17F1040F86
:1009900004DA012082460FE06D1EEEE7002F02DC34
:1009A000ED1B3E4403E0781CA84200DD7D1CB81B13
:1009B00000F1010A4FF000472078000703D4AA4550
:1009C00001DB4FF0FF3A0021B7F1004F0DF1430872
:1009D0008DF8431024D002202B23002F01DA7F4210
:1009E0002D230A21021EA0F1010000DC5FB197FB5C
:1009F000F1FC97FBF1F201FB1C7C17460CF1300C6B
:100A000008F801CDEEE7A8F101000370218809057F
:100A100001D5452100E06521A0F1010800F8011C85
:100A200009980FA9A1EB0807FF1D00B1012041198A
:100A300001EBEA70A1693844081A401EA0612078D1
:100A4000C00602D42046FFF7C9FC099828B1D4E9B2
:100A500001219047206A401C20622078C00622D5E0
:100A60002046FFF7BBFC1EE0002E04DBB34502DD91
:100A700001A8805D00E03020D4E901219047206A80
:100A8000401C2062761CAAF101005FEA000A0AD12C
:100A900000F03EF8C0680168405CD4E9012190474D
:100AA000206A401C2062281EA5F10105DCDC07E05D
:100AB000D4E9012118F8010B9047206A401C2062FC
:100AC000381EA7F10107F3DC2046FFF79DFC032049
:100AD00011B041E601694A1C02610878704700B50F
:100AE0008FB0CDE901310021059105497944CDE967
:100AF000031011466846FFF7D5FC0FB000BD00009B
:100B0000E5FFFFFF0A6802F8010B0A60704700006A
:100B1000004870473000002030B5B0F10A0271F192
:100B200000034FEA900E4EEA817EB0EB0E0061EBBF
:100B300091014FEA101E4EEA017E10EB0E0041EBD0
:100B400011114FEA102E4EEA016E10EB0E0041EB30
:100B500011214FEA104E4EEA014E10EB0E0041EB10
:100B60001141401841F100014FEAD00040EA4170C4
:100B70004FEAD1014FEA810444EA907410EB8005FA
:100B800044EB01046D1944EB0404521BA3414FF0E4
:100B9000000348BF0A3200D530BD401C41F10001BE
:100BA00030BD00002DE9F0411F46044603260168D0
:100BB000072A01F4006004DB08B116A505E016A5BC
:100BC00003E008B115A500E015A521F01000206094
:100BD000A069C01EA0610FB1401EA0612046FFF7B2
:100BE000FDFB4FB1D4E9012138469047206A401CF3
:100BF0002062C01C206206E0206AFAE7D4E90121E5
:100C000015F8010B9047761EF8D22046FFF7FCFB43
:100C1000BDE8F0814E414E006E616E00494E4600C7
:100C2000696E66002DE9F047814616468AB0354860
:100C300078440DC88DE80D0032487844801C03AC20
:100C40000DC884E80D0041F69B300844372190FB25
:100C5000F1F290FBF1F5A5F1800501FB12041B3CBC
:100C600002D56442012000E00020DFF898A0804611
:100C70000027FA44AAF1BE0A0EE0E0070AD0324685
:100C8000684607EB470101230AEB810104F03FF9B5
:100C90008DE8070064107F1C002CEED1194F7F44B3
:100CA000AE3F19E0E80715D007EB04100DF1180A64
:100CB00090E80E008AE80E00C068F04201D1981951
:100CC00008903246012306A903A804F020F903ABDB
:100CD00083E807006D10641C002DE3D14FF0010381
:100CE00032466946B8F1000F03A802D004F0FAF8C2
:100CF00001E004F00CF9C9E90001C9F808200AB0C4
:100D0000BDE8F087C8490000004870471000002087
:100D10007546FFF7F9FFAE4605006946534620F0D9
:100D20000700854618B020B5FFF7BAFABDE82040A5
:100D30004FF000064FF000074FF000084FF0000B97
:100D4000AC46ACE8C009ACE8C009ACE8C009ACE806
:100D5000C00921F007018D46704710B50446AFF376
:100D600000802046BDE81040FFF785BA0000000073
:100D700030B44FF0013C50F8042B51F8043BCCFA4E
:100D800052F4D51A20D1FCB950F8042B51F8043B89
:100D9000CCFA52F4D51A17D1B4B950F8042B51F843
:100DA000043BCCFA52F4D51A0ED16CB950F8042B8E
:100DB00051F8043BCCFA52F4D51A05D1002CDAD004
:100DC00030BC4FF00000704729BAB1FA81F111F040
:100DD0001801D1F120008440F2D1CA40CB4012F07A
:100DE000FF0213F0FF0330BCD01A704701491820EE
:100DF000ABBEFEE726000200704700004FF6004041
:100E0000CFF6FF7040F2D80CC2F2000C002203466D
:100E10000CEB030113F5807381F8002481F808249A
:100E200081F8102481F8182481F8202481F82824DE
:100E300081F8302481F8382481F8402481F848244E
:100E400081F8502481F8582481F8602481F86824BE
:100E500081F8702481F8782481F8802481F888242E
:100E600081F8902481F8982481F8A02481F8A8249E
:100E700081F8B02481F8B82481F8C02481F8C8240E
:100E800081F8D02481F8D82481F8E02481F8E8247E
:100E900081F8F02481F8F824BAD10022034600BF7B
:100EA0000CEB030113F5807381F8012481F8092408
:100EB00081F8112481F8192481F8212481F829244A
:100EC00081F8312481F8392481F8412481F84924BA
:100ED00081F8512481F8592481F8612481F869242A
:100EE00081F8712481F8792481F8812481F889249A
:100EF00081F8912481F8992481F8A12481F8A9240A
:100F000081F8B12481F8B92481F8C12481F8C92479
:100F100081F8D12481F8D92481F8E12481F8E924E9
:100F200081F8F12481F8F924BAD10022034600BFE8
:100F30000CEB030113F5807381F8022481F80A2475
:100F400081F8122481F81A2481F8222481F82A24B5
:100F500081F8322481F83A2481F8422481F84A2425
:100F600081F8522481F85A2481F8622481F86A2495
:100F700081F8722481F87A2481F8822481F88A2405
:100F800081F8922481F89A2481F8A22481F8AA2475
:100F900081F8B22481F8BA2481F8C22481F8CA24E5
:100FA00081F8D22481F8DA2481F8E22481F8EA2455
:100FB00081F8F22481F8FA24BAD10022034600BF56
:100FC0000CEB030113F5807381F8032481F80B24E3
:100FD00081F8132481F81B2481F8232481F82B2421
:100FE00081F8332481F83B2481F8432481F84B2491
:100FF00081F8532481F85B2481F8632481F86B2401
:1010000081F8732481F87B2481F8832481F88B2470
:1010100081F8932481F89B2481F8A32481F8AB24E0
:1010200081F8B32481F8BB2481F8C32481F8CB2450
:1010300081F8D32481F8DB2481F8E32481F8EB24C0
:1010400081F8F32481F8FB24BAD10022034600BFC3
:101050000CEB030113F5807381F8042481F80C2450
:1010600081F8142481F81C2481F8242481F82C248C
:1010700081F8342481F83C2481F8442481F84C24FC
:1010800081F8542481F85C2481F8642481F86C246C
:1010900081F8742481F87C2481F8842481F88C24DC
:1010A00081F8942481F89C2481F8A42481F8AC244C
:1010B00081F8B42481F8BC2481F8C42481F8CC24BC
:1010C00081F8D42481F8DC2481F8E42481F8EC242C
:1010D00081F8F42481F8FC24BAD10022034600BF31
:1010E0000CEB030113F5807381F8052481F80D24BE
:1010F00081F8152481F81D2481F8252481F82D24F8
:1011000081F8352481F83D2481F8452481F84D2467
:1011100081F8552481F85D2481F8652481F86D24D7
:1011200081F8752481F87D2481F8852481F88D2447
:1011300081F8952481F89D2481F8A52481F8AD24B7
:1011400081F8B52481F8BD2481F8C52481F8CD2427
:1011500081F8D52481F8DD2481F8E52481F8ED2497
:1011600081F8F52481F8FD24BAD10022034600BF9E
:101170000CEB030113F5807381F8062481F80E242B
:1011800081F8162481F81E2481F8262481F82E2463
:1011900081F8362481F83E2481F8462481F84E24D3
:1011A00081F8562481F85E2481F8662481F86E2443
:1011B00081F8762481F87E2481F8862481F88E24B3
:1011C00081F8962481F89E2481F8A62481F8AE2423
:1011D00081F8B62481F8BE2481F8C62481F8CE2493
:1011E00081F8D62481F8DE2481F8E62481F8EE2403
:1011F00081F8F62481F8FE24BAD100220CEB00011C
:1012000010F5807081F8072481F80F2481F81724E5
:1012100081F81F2481F8272481F82F2481F83724AE
:1012200081F83F2481F8472481F84F2481F857241E
:1012300081F85F2481F8672481F86F2481F877248E
:1012400081F87F2481F8872481F88F2481F89724FE
:1012500081F89F2481F8A72481F8AF2481F8B7246E
:1012600081F8BF2481F8C72481F8CF2481F8D724DE
:1012700081F8DF2481F8E72481F8EF2481F8F7244E
:1012800081F8FF24BAD100F01FBC00002DE9F0471F
:1012900082B04FF6004640F600046420CFF6FF7699
:1012A000C4F2020401F0ACFAA4F58065284640219E
:1012B00000224FF04008002701F086FBC8204FF0C5
:1012C000C80901F09DFA28464021012201F07CFB6B
:1012D000AE208DF807002046802100224FF0800AC2
:1012E00001F072FB40F27855C2F200050DF10701E2
:1012F000284601224FF47A7302F042FA20468021F8
:1013000000228DF8077001F05FFB0DF10701284600
:1013100001224FF47A7302F033FA10208DF807009F
:1013200020468021002201F04FFB0DF107012846E5
:1013300001224FF47A7302F023FA20468021002222
:101340008DF8078001F040FB0DF1070128460122CE
:101350004FF47A7302F014FA81208DF807002046CA
:101360008021002201F030FB0DF107012846012207
:101370004FF47A7302F004FAFF208DF8070020463C
:101380008021002201F020FB0DF1070128460122F7
:101390004FF47A7302F0F4F9A1208DF8070020468B
:1013A0008021002201F010FB0DF1070128460122E7
:1013B0004FF47A7302F0E4F92046802100228DF880
:1013C000079001F001FB0DF10701284601224FF4BF
:1013D0007A7302F0D5F94FF0A60920468021002249
:1013E0008DF8079001F0F0FA0DF10701284601226F
:1013F0004FF47A7302F0C4F9A8208DF80700204654
:101400008021002201F0E0FA0DF1070128460122B7
:101410004FF47A7302F0B4F93F208DF807002046AC
:101420008021002201F0D0FA0DF1070128460122A7
:101430004FF47A7302F0A4F9D3208DF80700204608
:101440008021002201F0C0FA0DF107012846012297
:101450004FF47A7302F094F92046802100228DF82F
:10146000077001F0B1FA0DF10701284601224FF48F
:101470007A7302F085F9D5208DF807002046802187
:10148000002201F0A1FA0DF10701284601224FF4D4
:101490007A7302F075F92046802100228DF807A0AA
:1014A00001F092FA0DF10701284601224FF47A73F8
:1014B00002F066F9D9208DF807002046802100222D
:1014C00001F082FA0DF10701284601224FF47A73E8
:1014D00002F056F9F1208DF8070020468021002205
:1014E00001F072FA0DF10701284601224FF47A73D8
:1014F00002F046F9DA208DF807002046802100220C
:1015000001F062FA0DF10701284601224FF47A73C7
:1015100002F036F912208DF80700204680210022C3
:1015200001F052FA0DF10701284601224FF47A73B7
:1015300002F026F9DB208DF80700204680210022EA
:1015400001F042FA0DF10701284601224FF47A73A7
:1015500002F016F92046802100228DF8078001F064
:1015600033FA0DF10701284601224FF47A7302F095
:1015700007F920208DF8070020468021002201F085
:1015800023FA0DF10701284601224FF47A7302F085
:10159000F7F802208DF8070020468021002201F094
:1015A00013FA0DF10701284601224FF47A7302F075
:1015B000E7F88D208DF8070020468021002201F0F9
:1015C00003FA0DF10701284601224FF47A7302F065
:1015D000D7F814208DF8070020468021002201F062
:1015E000F3F90DF10701284601224FF47A7302F056
:1015F000C7F8A4208DF8070020468021002201F0C2
:10160000E3F90DF10701284601224FF47A7302F045
:10161000B7F82046802100228DF8079001F0D4F918
:101620000DF10701284601224FF47A7302F0A8F861
:1016300040F2D800C2F20000314600BF421811F556
:10164000807182F8007482F8087482F8107482F84D
:10165000187482F8207482F8287482F8307482F842
:10166000387482F8407482F8487482F8507482F8B2
:10167000587482F8607482F8687482F8707482F822
:10168000787482F8807482F8887482F8907482F892
:10169000987482F8A07482F8A87482F8B07482F802
:1016A000B87482F8C07482F8C87482F8D07482F872
:1016B000D87482F8E07482F8E87482F8F07482F8E2
:1016C000F874BBD100213246831812F5807283F87A
:1016D000011483F8091483F8111483F8191483F89A
:1016E000211483F8291483F8311483F8391483F80A
:1016F000411483F8491483F8511483F8591483F87A
:10170000611483F8691483F8711483F8791483F8E9
:10171000811483F8891483F8911483F8991483F859
:10172000A11483F8A91483F8B11483F8B91483F8C9
:10173000C11483F8C91483F8D11483F8D91483F839
:10174000E11483F8E91483F8F11483F8F914BBD198
:1017500000213246831812F5807283F8021483F850
:101760000A1483F8121483F81A1483F8221483F8E5
:101770002A1483F8321483F83A1483F8421483F855
:101780004A1483F8521483F85A1483F8621483F8C5
:101790006A1483F8721483F87A1483F8821483F835
:1017A0008A1483F8921483F89A1483F8A21483F8A5
:1017B000AA1483F8B21483F8BA1483F8C21483F815
:1017C000CA1483F8D21483F8DA1483F8E21483F885
:1017D000EA1483F8F21483F8FA14BBD100213246DC
:1017E000831812F5807283F8031483F80B1483F8BE
:1017F000131483F81B1483F8231483F82B1483F831
:10180000331483F83B1483F8431483F84B1483F8A0
:10181000531483F85B1483F8631483F86B1483F810
:10182000731483F87B1483F8831483F88B1483F880
:10183000931483F89B1483F8A31483F8AB1483F8F0
:10184000B31483F8BB1483F8C31483F8CB1483F860
:10185000D31483F8DB1483F8E31483F8EB1483F8D0
:10186000F31483F8FB14BBD100213246831812F520
:10187000807283F8041483F80C1483F8141483F82A
:101880001C1483F8241483F82C1483F8341483F87C
:101890003C1483F8441483F84C1483F8541483F8EC
:1018A0005C1483F8641483F86C1483F8741483F85C
:1018B0007C1483F8841483F88C1483F8941483F8CC
:1018C0009C1483F8A41483F8AC1483F8B41483F83C
:1018D000BC1483F8C41483F8CC1483F8D41483F8AC
:1018E000DC1483F8E41483F8EC1483F8F41483F81C
:1018F000FC14BBD100213246831812F5807283F8A4
:10190000051483F80D1483F8151483F81D1483F857
:10191000251483F82D1483F8351483F83D1483F8C7
:10192000451483F84D1483F8551483F85D1483F837
:10193000651483F86D1483F8751483F87D1483F8A7
:10194000851483F88D1483F8951483F89D1483F817
:10195000A51483F8AD1483F8B51483F8BD1483F887
:10196000C51483F8CD1483F8D51483F8DD1483F8F7
:10197000E51483F8ED1483F8F51483F8FD14BBD156
:1019800000213246831812F5807283F8061483F81A
:101990000E1483F8161483F81E1483F8261483F8A3
:1019A0002E1483F8361483F83E1483F8461483F813
:1019B0004E1483F8561483F85E1483F8661483F883
:1019C0006E1483F8761483F87E1483F8861483F8F3
:1019D0008E1483F8961483F89E1483F8A61483F863
:1019E000AE1483F8B61483F8BE1483F8C61483F8D3
:1019F000CE1483F8D61483F8DE1483F8E61483F843
:101A0000EE1483F8F61483F8FE14BBD1002100BF56
:101A1000821916F5807682F8071482F80F1482F87E
:101A2000171482F81F1482F8271482F82F1482F8F2
:101A3000371482F83F1482F8471482F84F1482F862
:101A4000571482F85F1482F8671482F86F1482F8D2
:101A5000771482F87F1482F8871482F88F1482F842
:101A6000971482F89F1482F8A71482F8AF1482F8B2
:101A7000B71482F8BF1482F8C71482F8CF1482F822
:101A8000D71482F8DF1482F8E71482F8EF1482F892
:101A9000F71482F8FF14BBD100F016F8AF208DF8D0
:101AA000070020468021002200F08EFF40F278508F
:101AB000C2F200000DF1070101224FF47A7301F028
:101AC0005FFE02B0BDE8F0872DE9F04FA3B040F211
:101AD000D80A40F60004C2F2000A0DF10B0940F2E8
:101AE0007856C4F20204AAF5807509F10F08C2F213
:101AF00000064FF0000B00BFABF150008DF88B00DB
:101B000020468021002200F05FFF0DF18B07304658
:101B1000394601224FF47A7301F032FE00208DF82D
:101B20008B0020468021002200F04EFF30463946CF
:101B300001224FF47A7301F023FE10208DF88B0000
:101B400020468021002200F03FFF30463946012226
:101B50004FF47A7301F014FE29460020019500BF6E
:101B600091F8002109EB000709F800200AEBC002F8
:101B7000167A137C7E70167EBB7092F82030FE7051
:101B800092F828603B7192F830307E7192F838609C
:101B9000BB7192F84030FE7192F848603B7292F847
:101BA00050307E7292F85860BB7292F86030FE72CC
:101BB00092F868603B7392F8703091F880417E73C0
:101BC00092F88860BB7308EB00035C709E7092F81B
:101BD000983092F8A060FB7492F8B8303E7592F895
:101BE000C060FB7592F8C83091F878C192F89040C7
:101BF0003E7692F8D0607B7692F8D83091F8F8E192
:101C000008F800C0BC7492F8A84092F8B050BE76B4
:101C100092F8E060FB7692F8E83092F8F0202030FD
:101C200001F5807180287C75BD753E777B77BA772A
:101C300087F81FE094D140F60004C4F20204204665
:101C40008021012200F0C0FE40F27856C2F2000668
:101C50003046494680224FF47A7301F091FD019D90
:101C60000BF1010B0135BBF1080F0AF1010A7FF4FA
:101C700043AF23B0BDE8F08F2DE9F04F82B000F103
:101C80000803203A019345F22C63D2B2C0F6000358
:101C900040F2D80903EB021200234FF00108C2F210
:101CA000000905460E4600920EE000BFE2550135E0
:101CB000019FEAB2974203F1010304BF01F1080654
:101CC0000546102B00F02A816AB2002AEFD4009A50
:101CD0005FFA85FAD25CD407F4B211D13F2C1FD839
:101CE0004FEAD40B09EBCA0406F0070C14F80BE01A
:101CF00008FA0CF72EEA070704F80B7010E000BF93
:101D00003F2C0DD84FEAD40E09EBCA0706F0070B9B
:101D100017F80EC008FA0BF444EA0C0407F80E405A
:101D2000970706F10104E7B20ED43F2F1CD84FEA03
:101D3000D70B04F0070C09EBCA0414F80BE008FAFF
:101D40000CF72EEA07070DE03F2F0DD84FEAD70B0F
:101D500004F0070C09EBCA0414F80BE008FA0CF7BE
:101D600047EA0E0704F80B70570706F10204E7B2C2
:101D70000ED43F2F1CD84FEAD70B04F0070C09EB09
:101D8000CA0414F80BE008FA0CF72EEA07070DE076
:101D90003F2F0DD84FEAD70B04F0070C09EBCA040C
:101DA00014F80BE008FA0CF747EA0E0704F80B707A
:101DB000170706F10304E7B20ED43F2F1CD84FEAF1
:101DC000D70B04F0070C09EBCA0414F80BE008FA6F
:101DD0000CF72EEA07070DE03F2F0DD84FEAD70B7F
:101DE00004F0070C09EBCA0414F80BE008FA0CF72E
:101DF00047EA0E0704F80B70D70606F10404E7B2B1
:101E00000ED43F2F1CD84FEAD70B04F0070C09EB78
:101E1000CA0414F80BE008FA0CF72EEA07070DE0E5
:101E20003F2F0DD84FEAD70B04F0070C09EBCA047B
:101E300014F80BE008FA0CF747EA0E0704F80B70E9
:101E4000970606F10504E7B20ED43F2F1CD84FEADF
:101E5000D70B04F0070C09EBCA0414F80BE008FADE
:101E60000CF72EEA07070DE03F2F0DD84FEAD70BEE
:101E700004F0070C09EBCA0414F80BE008FA0CF79D
:101E800047EA0E0704F80B70570606F10604E7B29E
:101E90000ED43F2F1CD84FEAD70B04F0070C09EBE8
:101EA000CA0414F80BE008FA0CF72EEA07070DE055
:101EB0003F2F0DD84FEAD70B04F0070C09EBCA04EB
:101EC00014F80BE008FA0CF747EA0E0704F80B7059
:101ED00052B2B2F1FF3F06F10702D4B20EDD3F2C41
:101EE0003FF6E5AEE70809EBCA0402F0070C14F868
:101EF00007E008FA0CF22EEA0202D7E63F2C3FF682
:101F0000D6AEE70809EBCA0402F0070C14F807E0A4
:101F100008FA0CF242EA0E02C8E600BF02B0BDE8C1
:101F2000F08F00001378002B08BF704770B50C4687
:101F30000546561EE8B2782884BF00251034E1B269
:101F4000E8B2DAB2FFF798FEB3780835002B06F155
:101F50000106EFD1BDE870407047000000000000AE
:101F60002DE9F04F8FB09FED080B40F2245B002766
:101F70004FF064084FF002090DF13A0AC2F2000B6B
:101F800056EC105B03AC03E0000000000000C03F13
:101F90005846902100220123CDE900A9CDF8088000
:101FA00000F0D0FDBDF83A0000BA400D03F04DF945
:101FB0002A46334603F060F903F016F9E0510A208F
:101FC00000F01EFC04372C2FE2D19DED030A9DED9D
:101FD000042A40F2D840B4EE420AF1EE10FAC7BF2C
:101FE0008DED032AB0EE421AB0EE401AB0EE420A6E
:101FF0009DED053AC2F20000B4EE430AF1EE10FA8C
:10200000C7BF8DED043AB0EE432AB0EE402AB0EEE1
:10201000430A9DED064AB4EE440AF1EE10FAC7BF3A
:102020008DED054AB0EE443AB0EE403AB0EE440AC7
:102030009DED074AB4EE440AF1EE10FAC7BF8DEDEC
:10204000064AB0EE445AB0EE405AB0EE440A9DED56
:10205000084AB4EE440AF1EE10FAC7BF8DED074A04
:10206000B0EE446AB0EE406AB0EE440A9DED097AE3
:10207000DDED0A0ADDED0B1AB4EE470AF0EE402A58
:102080009DED0C4AF1EE10FAC4BFF0EE472AB0EE17
:10209000407AB4EE607AF0EE473AF1EE10FAC4BF3F
:1020A000F0EE603AF0EE470AF4EE610AB0EE607AC4
:1020B000F1EE10FAC4BFB0EE617AF0EE601AF4EE01
:1020C000441AB0EE610AF1EE10FAC8BFB0EE440A4D
:1020D000DDED0D0AC8BFB0EE614AB4EE604AF1EE24
:1020E00010FAC8BFB0EE604AB4EE421AF0EE410AF0
:1020F000F1EE10FAC4BFF0EE420AB0EE412AB4EE9F
:10210000432AF0EE421AF1EE10FAC4BFF0EE431A81
:10211000B0EE423AB4EE453AB0EE432AF1EE10FA90
:10212000C4BFB0EE452AB0EE435AB4EE465AB0EE04
:10213000453AF1EE10FAC4BFB0EE463AB0EE456A49
:10214000B4EE626AB0EE465AF1EE10FAC4BFB0EED9
:10215000625AF0EE462AF4EE632AB0EE626AF1EEBD
:1021600010FAC4BFB0EE636AF0EE623AF4EE473A9A
:10217000F0EE632AF1EE10FAC4BFF0EE472AB0EE9B
:10218000637AB4EE407AB0EE471AF1EE10FAC4BFAB
:10219000B0EE401AB0EE470AB4EE440AF1EE10FA7F
:1021A000C8BFB0EE440AF4EE610AB0EE604AF1EE48
:1021B00010FAC4BFB0EE614AF0EE601AF4EE421AB3
:1021C000B0EE617AF1EE10FAC4BFB0EE427AB0EE32
:1021D000612AB4EE432AF0EE420AF1EE10FAC4BFCF
:1021E000F0EE430AB0EE423AB4EE453AF0EE431A4E
:1021F000F1EE10FAC4BFF0EE451AB0EE435AB4EE59
:10220000465AB0EE453AF1EE10FAC4BFB0EE463A87
:10221000B0EE456AB4EE626AB0EE465AF1EE10FADC
:10222000C4BFB0EE625AF0EE462AF4EE412AB0EE98
:10223000622AF1EE10FAC4BFB0EE412AB0EE621A83
:10224000B4EE401AF1EE10FAC8BFB0EE401AB4EE88
:10225000474AB0EE440AF1EE10FAC4BFB0EE470AA6
:10226000B0EE447AB4EE607AB0EE474AF1EE10FA7E
:10227000C4BFB0EE604AF0EE470AF4EE610AB0EE79
:10228000606AF1EE10FAC4BFB0EE616AF0EE601A57
:10229000F4EE431AB0EE617AF1EE10FAC4BFB0EE7C
:1022A000437AB0EE613AB4EE453AF0EE430AF1EE0D
:1022B00010FAC4BFF0EE450AB0EE435AB4EE425AEB
:1022C000B0EE453AF1EE10FAC4BFB0EE423AB0EECD
:1022D000452AB4EE412AF1EE10FAC8BFB0EE412A09
:1022E000B4EE440AB0EE401AF1EE10FAC4BFB0EEFC
:1022F000441AB0EE404AB4EE464AB0EE440AF1EE5B
:1023000010FAC4BFB0EE460AB0EE446AB4EE476AB3
:10231000B0EE464AF1EE10FAC4BFB0EE474AB0EE56
:10232000467AB4EE607AB0EE475AF1EE10FAC4BFC6
:10233000B0EE605AF0EE470AF4EE430AB0EE606A7F
:10234000F1EE10FAC4BFB0EE436AB0EE603AB4EEFC
:10235000423AF1EE10FAB4EE401AC8BFB0EE423A7B
:10236000F1EE10FAC8BFB0EE410AB4EE440AF1EE45
:1023700010FAC8BFB0EE404AB4EE454AF1EE10FA8A
:10238000C8BFB0EE445AB4EE465AF1EE10FAC8BFD8
:10239000B0EE456AB4EE436AF1EE10FAC8BFB0EE93
:1023A000463A80ED003A0FB0BDE8F08FFEE700003E
:1023B0007047000070B581B00022009290F83C2078
:1023C000012A03D10221084601B070BDD1F800E016
:1023D0000122BEF10A0F1FFA8EFC80F83C2009D3BF
:1023E0004FEA4C02036812FA8EF2A2F11E0403F1C6
:1023F0000C0204E003680EEB4E0403F11002072503
:102400001668A54026EA050515608D68166805FA68
:1024100004F4344314604968062907D801EB8101AC
:102420004A1F194651F8345F0FE000BF0C2901EB39
:10243000810105D8A1F12302194651F8305F04E06B
:10244000A1F14102194651F82C5F1F24944025EA5E
:1024500004040C600CFA02F20C6842F2043CC4F270
:10246000010C2243ACF54174A3420A6006D000215E
:1024700080F83C10084601B070BD00BF1221BEF1CB
:10248000110FC1F2000118BF8E453BD1DCF80020CE
:102490008E4522F48002CCF80020DCF8002042F4C3
:1024A0000002CCF80020E2D140F20801C2F20001A3
:1024B00009684DF68362C4F21B32A1FB0212910C33
:1024C00001EB81014900009100990029CFD000BFA4
:1024D00000990139009100990029C8D0009901396B
:1024E000009100990029C2D000990139009100990A
:1024F0000029BCD000990139009100990029E7D149
:10250000B5E700BFBEF1120FB1D1DCF8001021F425
:102510000001CCF80010DCF8001041F48001CCF888
:102520000010A4E70068C06C70470000002804BFDA
:102530000120704710B50446006C00283ED0206C86
:10254000C00645D4206C41F202118843023042F2A9
:1025500004312064C4F20101086820F440300860AE
:102560000A6894E809101A43D4F810E00A60416838
:10257000012321F4807141604168C0F6007341EA93
:102580000E214160416821F040714160416841EA9B
:102590000C014160816821F400618160E16882681A
:1025A00011438160A16A8268994222F07062826060
:1025B000826813D122F0405119E000BF204600F09C
:1025C00065F80020606484F83C00206CC006B9D532
:1025D0000120002184F83C1010BD00BF1143816030
:1025E000816821F040518160E16A82681143816015
:1025F000816821F0020181608168227E94F8203098
:1026000041EA42018160416883B141F40061416067
:1026100041684EF2000221F460414160616ACFF6E8
:10262000FF72436802EB4131194301E021F400617C
:102630004160C16A40F2000C21F47001C162E2699C
:102640006169CFF6F07CC36A0CEB02521A43C26296
:10265000826822F40072826094F83020836843EA32
:1026600042228260826822F480628260826842EA4A
:102670008121816000206064216C012262F30101EC
:102680002164002184F83C1010BD000080B586B0A4
:1026900042F200010068C4F2010100228842059262
:1026A000049201D006B080BD43F630000092C4F21F
:1026B0000200436943F480734361436903F4807308
:1026C0000093009B0092036843F0010303600068DD
:1026D00000F0010000900098012001900320CDE956
:1026E000020201F5604001A900F09EF806B080BD2D
:1026F00010B581B00021009190F83C10012903D160
:10270000022001B010BD00BF0468012180F83C1018
:10271000214651F8083FDB0729D10B684DF683624B
:1027200043F001030B6040F20803C2F200031B6890
:10273000C4F21B32A3FB02239A0C02EB420200926A
:10274000009AA2B1009A013A0092009A7AB1009AD6
:10275000013A0092009A52B1009A013A0092009A0E
:102760002AB1009A013A0092009A002AEAD10A6836
:10277000036CD2070CD143F01001016400F1440155
:1027800001200A6810430860002001B010BD00BF9E
:1027900040F2017223EA020202F58072026462686A
:1027A000520504D5026C012363F30D320264026CFE
:1027B0004FF0000C0023D20444BF426C22F0060309
:1027C00042F2000E436480F83CC06FF02200C4F275
:1027D000010E2060DEF80403C00609D074450BD159
:1027E000DEF8080010F0405F06D14FF08040C8E7E7
:1027F000086810F0405FF8D0002001B010BD000064
:10280000B0B5044600F0E6F8054640F20000C2F21A
:1028100000000078611C18BF044400BF00F0DAF823
:10282000401BA042FAD3B0BD2DE9F04F82B000F1B9
:102830003E4707F1FF77860546EA972741F20006F3
:10284000C4F20206072243F6004EB04208BF04223B
:10285000C4F2010E042F38BF3A46002600274FF07D
:102860000008009209E000BF08F101080237B8F142
:10287000100F06F1040600F0A3800D68012202FA91
:1028800008F415EA0409EFD0D1F804B003220BF0E4
:10289000030CACF10105BA40012D6FEA020A0FD812
:1028A0008268CD6802EA0A02BD402A43826042681B
:1028B000A243CBF3001404FA08F42243426005E07B
:1028C000BCF1030F02D14FF0030C1EE0C2688C680C
:1028D00002EA0A02BC402243BCF1020FC26014D1DA
:1028E0006FF0030202EA58020244D2F820C006F058
:1028F0001C040F230D69A3402CEA0303A5402B43BE
:102900001362D1F804B00BF0030C02680CFA07F361
:1029100002EA0A021A431BF4403F0260A4D00022DC
:1029200043F644030192C4F202031A684FF6084CBE
:1029300042F480421A601A68CFF6FF7C02F48042AB
:102940000192019A28F00302724452F80C3006F00A
:102950000C050F24AC40A343009C04FA05F52B435F
:1029600042F80C30DEF808204B6842EA090543F6CD
:102970000C4CDC0258BF22EA0905CEF80850C4F21C
:10298000010CDCF800209C0242EA090558BF22EA4B
:102990000905CCF80050DEF804209C0342EA090542
:1029A00058BF22EA0905CEF80450DEF80020DB0308
:1029B00042EA090558BF22EA0905CEF8005053E75C
:1029C00002B0BDE8F08F0000002A08BF0904816151
:1029D0007047000040F21860C2F2000000687047C3
:1029E000002804BF01207047F0B581B0044690F87C
:1029F0003D0028B9002084F83C00204600F058FA39
:102A0000242084F83D002068016821F00101016064
:102A1000016841F400410160016821F40041016056
:102A200000F0E8FB636848F2A16CC0F2010C40F6CC
:102A30000011C0F23D0163453CBF48F28041C0F245
:102A40001E01884202D2012001B0F0BD4DF6836123
:102A5000C4F21B31A0FB01122168970CD1F804E0ED
:102A60004FF496762EF03F0545EA92454D60774348
:102A700048F638160D6AC0F24106A7FB067625F027
:102A80003F07634538BF960C721C3A430A62CA6915
:102A900048F2A0664CF6FF77C0F20106B34222EA84
:102AA00007020BD801385B00B0FBF3F001306FF385
:102AB0001F30042898BF04201BE000BFA76801381E
:102AC00057B119277B43B0FBF3F001306FF31F3090
:102AD00070B100F5804007E003EB4303B0FBF3F077
:102AE00001306FF31F3018B100F5004001E000BF66
:102AF00001201043C8610868D4E9072320F0C00012
:102B0000104318430860886848F2FF3204F10C074C
:102B100090438CCF18431043A6698860C86820F0A2
:102B2000FF0038433043C860086840F00100086087
:102B300000202021206484F83D10206384F83E00AA
:102B400001B0F0BD2DE9F04784B0984617460E4617
:102B50000446FFF73FFF94F83D10202923D1054696
:102B600020688169890719D5FFF734FF401B1928B0
:102B7000F6D900202021206384F83D1084F83E001F
:102B8000206C04F13C0940F0200020640220002168
:102B900089F8001004B0BDE8F08700BFA14619F81D
:102BA0003C1F012904D1022004B0BDE8F08700BF1A
:102BB000012289F800200368DDE90D1A0C9ADB0771
:102BC00003D1036843F001030360036823F4006347
:102BD0000360222084F83D00402084F83E0000205D
:102BE000206462626185608D314620850020CFF6C9
:102BF000FF70E06220463A464346CDE900A501F069
:102C00005BF918B1012004B0BDE8F087208DA8B1B0
:102C100002282BD0012835D121680A6822F480626D
:102C20000A60002203924A6903928A690392039A16
:102C30000A6842F400720A602CE000BF0020039092
:102C4000206841690391816903910399016841F406
:102C500000710160202084F83D00002084F83E00CF
:102C6000002189F8001004B0BDE8F08721680A68E7
:102C700022F480620A600A6842F400620A6000225C
:102C8000039202E00021039121684A690392896955
:102C9000039103990AF1010680B2032818D802288B
:102CA00042D0012856D1BAF1000F00F0AB80206865
:102CB000014651F8142F520600F1A8800868C0069A
:102CC00000F1E280FFF786FE401B5045EFD9D0E0CF
:102CD000BAF1000F10D000BF2068014651F8142F40
:102CE00052060ED40868C00600F1CE80FFF772FECF
:102CF000401B5045F0D9BCE020684169490640F1CD
:102D0000B1800069616A0870606A2268411C208D88
:102D1000616201382085638D013B638553695B07E0
:102D200040F18080106973E020684169490747D409
:102D3000002E59D0BAF1000F00F09980FFF74AFE3B
:102D4000401B504500F29580206841694907F5D540
:102D500036E000BF2068416949070FD4002E65D0D6
:102D6000BAF1000F00F08380FFF734FE401B50459E
:102D700000F27F80206841694907F5D5016821F498
:102D8000806101600069616A0870606A218D0130AC
:102D90000139606221852068618D01396185416951
:102DA00049070DD4002E4FD0BAF1000F5FD0FFF7C6
:102DB00011FE401B50455CD8206841694907F6D593
:102DC000016841F4007101600069616A0870606A1D
:102DD0002268411C6162218D01392185618D013993
:102DE00061851169417014E041694907E8D441697E
:102DF00049075CBF41695FEA4171E1D44169490714
:102E0000F2D5DDE72068416949062BD50069616A82
:102E10000870606A218D01306062481E2085618DD6
:102E20000139618501047FF437AF13E74169490730
:102E3000A4D4416949075CBF41695FEA41719DD4EF
:102E400041694907F2D599E741694907B8D4416911
:102E500049075CBF41695FEA4171B1D441694907E3
:102E6000F2D5ADE750F8141FC90601460CD4FFF7A0
:102E7000B1FD00202021206384F83D1084F83E003D
:102E8000206C40F020000AE06FF010000860002085
:102E90002021206384F83D1084F83E00206C2064DB
:102EA0000120002189F8001004B0BDE8F08700007F
:102EB000016845F20040C4F20000814218BF70472B
:102EC000B0B586B0002443F630050194C4F2020583
:102ED000296800F5D83041F002012960296801F025
:102EE0000201019101994FF4407101911221CDE944
:102EF0000214032104910421059101A9FFF794FC18
:102F00000094286940F400102861286900F400103A
:102F10000090009806B0BDE8B040704740F2000055
:102F200040F21861C2F20000C2F2000100780A68A3
:102F3000104408607047000080B543F60040C4F2BA
:102F40000200016841F400710160016841F4806190
:102F50000160016841F480710160032000F088F88D
:102F6000002000F005F800F027F8002080BD0000E8
:102F700070B540F20006C2F2000640F20801327855
:102F8000C2F200014FF47A730968B3FBF2F204460F
:102F9000B1FBF2F1084600F01BFD0F2C4FF00105CC
:102FA00008D838B94FF0FF3021460022002500F044
:102FB00033F87460284670BD82B0002043F64001AB
:102FC0000190C4F202014A6842F480424A604A68B1
:102FD00002F480420192019A0090086840F080500B
:102FE0000860086800F0805000900098072002B048
:102FF00000F03EB8002848BF704700F01F010122D2
:1030000002FA01F11C2202EAD0004EF20012CEF2C6
:10301000000281507047000010B54EF60C5CCEF2F5
:10302000000CDCF80030C3F3022E8EF00704042CF1
:1030300028BF0424BEF103034FF0FF3E0EFA04F450
:1030400038BF0023A14399400EFA03F39A4311437A
:1030500000F00F0200F160430901043A03F56443F4
:103060006244002848BF02F10C03197010BD000033
:103070004EF60C51CEF200010A684FF6FF031A40DB
:1030800060F30A2242F0806040F0FD7008607047F3
:10309000002804BF012070472DE9F04143F60808DD
:1030A000C4F202080446D8F8F8030D4600F0070001
:1030B000884207D288F8F853D8F8F80300F00700E0
:1030C000A84277D12068810717D5410705D5D8F8E0
:1030D000001041F4E051C8F80010010705D5D8F8F8
:1030E000001041F46041C8F80010D8F80010A26840
:1030F00021F0F0011143C8F80010C00740D1D8F802
:10310000F80300F00700A84207D988F8F853D8F868
:10311000F80300F00700A8424CD12068410707D50A
:10312000D8F80010E26821F4E0511143C8F800100B
:10313000000708D5D8F80000216920F4604040EA73
:10314000C100C8F8000000F07DF8D8F8001045F282
:103150001462C1F30311C0F60002515C40F2080290
:1031600020FA01F140F20400C2F200000068C2F24D
:1031700000021160FFF7FCFE0020BDE8F08100BFF7
:103180006068811E022907D258F8081C89015CBFBB
:103190000120BDE8F08111E0012807D158F8081C92
:1031A00089035CBF0120BDE8F08107E058F8081CE6
:1031B000890703D40120BDE8F08100BFD8F80010D2
:1031C00021F003010843C8F80000FFF703FC06469E
:1031D00041F28837D8F80000616800F00C00B0EBCD
:1031E000810F8CD0FFF7F6FB801BB842F2D9032089
:1031F000BDE8F08140F2080043F60801C2F2000089
:10320000C4F202010068096845F22462C1F3822118
:10321000C0F60002515CC8407047000040F2080050
:1032200043F60801C2F20000C4F202010068096816
:1032300045F22462C1F34231C0F60002515CC8403D
:103240007047000010B543F60404C4F2020460683D
:1032500000F00C0142F200400829C0F2F40007D04F
:10326000042918BF10BD41F20020C0F27A0010BD41
:10327000216801F03F02216823684902C3F38811E5
:1032800006D4A1FB00010023FDF71CF807E000BFF6
:1032900041F20020C0F27A004843B0FBF2F021680E
:1032A0000222C1F3014102EB4101B0FBF1F010BD7C
:1032B000002804BF012070472DE9F04182B0044688
:1032C000007843F60006C007C4F202060CD0B068CE
:1032D00000F00C00042840F081803068800303D5A2
:1032E0006068002800F06A81207880071BD5B068EC
:1032F00010F00C0F09D0B06800F00C00082840F066
:1033000087807068400200F183803068800703D5B1
:10331000E068012840F052813068216920F0F8000F
:1033200040EAC10030602078000713D420784007BD
:103330002AD4A569002D00F03C81B06800F00C0093
:10334000082840F0A180012D40F01081012002B03A
:10335000BDE8F0816069002840F20000C4F2472017
:1033600000F07E800121C0F8801EFFF733FB054688
:10337000706F8007DAD4FFF72DFB401B0228F7D9C6
:10338000032002B0BDE8F081306C5FEAC0080AD4C7
:1033900000200190306C40F080503064306C00F0C0
:1033A00080500190019847F20007C4F20007386886
:1033B000C00547D4386840F480703860FFF70AFBD6
:1033C000054600BF3868C0053CD4FFF703FB401B2F
:1033D0000228F7D9032002B0BDE8F081B06800F000
:1033E0000C00082803D1706840023FF576AF606892
:1033F000B0F5803F07D0B0F5A02F40F09B8030683B
:1034000040F480203060306840F4803030609BE0D1
:10341000E06800285CD00020C4F247200121016050
:10342000FFF7D8FA054600BF306880073FF574AF54
:10343000FFF7D0FA401B0228F6D9032002B0BDE8FE
:10344000F08100BFA068012805D0052854D1306F55
:1034500040F004003067306F40F00100306755E005
:103460000021C0F8801EFFF7B5FA0546706F80078F
:103470007FF55CAFFFF7AEFA401B0228F6D90320B8
:1034800002B0BDE8F08100BF0027C4F2472700204A
:103490003866FFF79FFA022D05460DD1306880018E
:1034A00040F19080FFF796FA401B02284FF003008E
:1034B000F4D902B0BDE8F0813068800179D5FFF71A
:1034C00089FA401B02284FF00300F5D9F1E700BF4D
:1034D0000020C4F2472000210160FFF77BFA054677
:1034E000306880077FF51FAFFFF774FA401B022892
:1034F0004FF00300F4D9DCE7316F002821F001011F
:103500003167316F21F0040131677DD0FFF762FA36
:10351000054641F2883700BF306F800700F1868092
:10352000FFF758FA401BB842F6D9032002B0BDE8B5
:10353000F08100BF3168002821F4803131603168AA
:1035400021F4802131607BD0FFF744FA054600BFAB
:10355000306880033FF5C8AEFFF73CFA401B642893
:10356000F6D9032002B0BDE8F08100BF7068E169C0
:1035700000F480028A4221D1216A00F03F028A428F
:103580001CD147F6C071626A0140B1EB821F15D1B0
:10359000A16A4FF6FF73C903994300F44032A1F5C5
:1035A00080318A420AD1E16A00F07060B0EB016FAD
:1035B00004D1002002B0BDE8F08100BF012002B0BC
:1035C000BDE8F08104F11C052FCD084340EA8210CC
:1035D000D9034FF6FF729143A1F5803140EA0560AF
:1035E0000843706001203866FFF7F4F9044600BF15
:1035F00030688001DDD4FFF7EDF9001B02284FF0A1
:103600000300F5D955E700BFFFF7E4F9054641F29D
:10361000883700BF306F800708D5FFF7DBF9401B04
:10362000B8424FF00300F5D943E700BFB8F1000FEF
:103630003FF57FAE306C20F08050306479E600BFFB
:10364000FFF7C8F9054600BF306880037FF54CAE30
:10365000FFF7C0F9401B64284FF00300F4D928E7B6
:1036600070B538B10446406A30B10020206104F1E1
:10367000140007E0012070BD6068B0F5827F03D0C0
:1036800004F11C00002101600026A66294F851009C
:1036900020B9204684F8506000F03CF8022084F8FD
:1036A000510094E80F0001F48271056802F40442AD
:1036B00025F040050560114403F4006223691144BC
:1036C00003F002026369114403F00102A369E56992
:1036D000114403F40072114405F03802256A1144C4
:1036E00005F08002A56A114305F400521143016000
:1036F000626A042101EA134102F0100211444160A0
:10370000C16921F40061C1610120666584F851003E
:10371000304670BD016843F20000C4F201008142EE
:1037200018BF704780B586B0002143F63002019182
:10373000C4F20202536900F5504043F480535361D0
:10374000536903F480530193019B0191136843F083
:1037500001031360126802F001020192019AB02283
:1037600001920222CDE90221032104910521059154
:1037700001A9FFF759F806B0BDE880407047000086
:103780002DE9F04383B0044690F85000012803D19E
:10379000022003B0BDE8F0834FF001091D46164634
:1037A0000F4684F85090FFF715F994F8511001294D
:1037B00044D18046002F4FF0010018BF002E00F0CA
:1037C000D4800320002184F8510061652763A68618
:1037D000E686A163A187E187A0682164B0F5004F68
:1037E0002068616407D1016821F04001016001682F
:1037F00041F4804101600168490603D4016841F049
:10380000400101606168731EE268B1FA81F1B3FAA8
:1038100083F349095B09B2F5006F41EA03013BD12B
:1038200031B137F8021BC1602763E08E0138E086B2
:10383000E08E00286AD0681C0DD11CE0022094E0C4
:10384000216B31F8022BC2602163E08E0138E086E3
:10385000E08E00285AD0206881688907F0D4FFF7ED
:10386000B9F8A0EB0800A842F2D338E0FFF7B2F8AD
:10387000E08E00284AD0206881688907F6D5216B40
:1038800031F8022BC2602163E08E0138E086E08EC1
:103890000028F0D13AE000BF39B139780173206BCC
:1038A00001302063E08E0138E086E08E70B3681C42
:1038B0000BD11BE0216B09780173206B0130206371
:1038C000E08E0138E086E08E00B3206881688907C9
:1038D000F0D4FFF77FF8A0EB0800A842F3D3032051
:1038E00043E000BFFFF776F8E08E78B1206881688A
:1038F0008907F7D5216B09780173206B01302063AC
:10390000E08E0138E086E08E0028EFD140F208001A
:10391000C2F20000006849F68171C1F25E61A0FB4D
:103920000101480D4FF47A71484302906068B0F588
:10393000827F23D1204680212A46434600F050FD55
:1039400028B1606D40F02000606520206065A068AF
:1039500038B9002001902068C16801918068019009
:103960000198606D002818BF0120002184F8519053
:1039700084F8501003B0BDE8F08300BF029800281F
:10398000E5D0029801380290206880680006DED5F4
:1039900002980028DBD002980138029020688068E5
:1039A0000006D4D502980028D1D0029801380290A0
:1039B000206880680006CAD502980028C7D00298FF
:1039C00001380290206880680006D7D4BFE7000065
:1039D000411E0020B0EB116F1CBF012070474EF25A
:1039E0001002CEF2000251604EF62351CEF20001D9
:1039F000F0230B7007219060116070477047000042
:103A000070470000002804BF0120704710B504462D
:103A100090F83D0028B9002084F83C00204600F0D2
:103A20008FF8022084F83D00206840F2FF7302689E
:103A3000C4F2000340F2000C9842C4F2010C1DDDF8
:103A400040F60001C4F20001884220D060451ED03B
:103A500040F60041C4F20001884218D04FF6FF71D1
:103A6000C4F2000188421CDC984225DCB0F1804F92
:103A70003AD040F20041C4F2000133E0B0F1804F8F
:103A800005D040F20041C4F200018842E6D1A168AD
:103A900022F070020A434FF6FF71C4F2000188421F
:103AA000E2DD44F2FF31C4F20101884210DC6045DE
:103AB0001AD044F2000113E040F60001C4F2000104
:103AC000884211D040F60041C4F200010AE000BF74
:103AD00044F60001C4F20101884205D044F20041DD
:103AE000C4F20101884203D1216922F440720A43E1
:103AF000A36922F08001D4F804E0E268194360452C
:103B00000160C262C0F828E002D16169CCF83010CF
:103B100001214161002084F8461084F83E1084F8A9
:103B20003F1084F8401084F8411084F8421084F863
:103B3000431084F8441084F8451084F83D1010BDFB
:103B4000006844F60001C4F20101884218BF7047C2
:103B500080B582B00020019043F64400C4F2020018
:103B60000168002241F4802101600068002100F416
:103B70008020019001981A20FFF74EFA1A2002B017
:103B8000BDE88040FFF736BA90F83D1001291CBF10
:103B900001207047022180F83D10006840F6FF3296
:103BA000C168C4F20002904241F00101C1600FDC23
:103BB000B0F1804F1DD040F20041C4F200018842B4
:103BC00017D040F60001C4F20001884211D017E07E
:103BD00040F60041C4F2000188420AD044F20001DC
:103BE000C4F20101884204D00021C4F201018842DC
:103BF00006D1816801F00701062904BF0020704743
:103C0000016841F001010160002070477047000029
:103C100010B5016804460869800744BFC8685FEAB8
:103C2000807039D40869400744BFC8685FEA4070B3
:103C30003ED40869000744BFC8685FEA007045D4F5
:103C40000869C00644BFC8685FEAC0604AD4086912
:103C5000C0071CBFC8685FEAC07051D10869000680
:103C600044BFC8685FEA006052D40869400644BF98
:103C7000C8685FEA406053D40869800646BFC868D8
:103C80005FEA806010BD6FF0200220460A61BDE847
:103C90001040FFF7B5BE00BF6FF0020008610120C1
:103CA00020778869800743D02046FFF7AFFF45E0C3
:103CB0006FF00400086102202077886910F4407FCB
:103CC00040D02046FFF7A2FF42E000BF6FF008009F
:103CD000086104202077C86980073DD02046FFF79F
:103CE00095FF3FE06FF01000086108202077C86959
:103CF00010F4407F3AD02046FFF788FF3CE000BF39
:103D00006FF001000861204600F03EF82168A5E749
:103D10006FF0800008612046FFF770FE2168A4E77D
:103D20006FF040000861204600F05CF82168A3E7CE
:103D3000204600F025F8204600F024F821680020F5
:103D400020776FE7204600F01BF8204600F01AF8B5
:103D50002168002020776CE7204600F011F820460B
:103D600000F010F821680020207769E7204600F075
:103D700007F8204600F006F821680020207766E763
:103D8000704700007047000040F2D051C2F20001BD
:103D9000884201D0704700BF40F2C400C2F2000068
:103DA00081790131CAB2642A817103D10021817104
:103DB00001210170C1790131CAB2052AC17103D153
:103DC0000021C17101214170C1684EF660220131AC
:103DD0009142C16018BF704702690021C160511C47
:103DE0000161704770470000002804BF0120704740
:103DF00010B5044690F83D0028B9002084F83C0036
:103E0000204600F021F8242084F83D002068C16895
:103E100021F40051C160204600F068FB2068016970
:103E200021F490410161416921F02A014161C16899
:103E300041F40051C16000202021206484F83D102D
:103E400084F83E1010BD0000016841F20000C4F289
:103E50000100814218BF704780B586B0002143F64B
:103E600030020191C4F20202536900F5704043F040
:103E700010035361536903F010030193019B0191F7
:103E8000136843F001031360126802F0010201920B
:103E9000019A4FF4C06201920222CDE9022103216E
:103EA00004910721059101A9FEF7BEFC06B0BDE80B
:103EB00080407047FEE700002DE9F04383B00446E0
:103EC00000680B9D0A9E0768994647F48067076063
:103ED0000768904647F48073036043690F46DA072A
:103EE0001DD1711C11D0002E00F03681FEF772FD3D
:103EF000401BB04200F2328120684169C907F5D009
:103F00000DE000BF4169C90709D14169C90706D160
:103F10004169C90704BF41695FEAC171F2D007F086
:103F2000FE0707614169890738D44169721C29D0AD
:103F3000490529D4002E00F0398100BFFEF74AFD63
:103F4000401BB04200F2348120684169890725D4C2
:103F500041694905F2D517E0416989071ED44169D5
:103F6000490511D44169890718D4416949050BD421
:103F70004169890712D44169490505D44169890716
:103F80000CD441694905E7D5016841F4007101602D
:103F90006FF48061416104200BE100BF00210291B8
:103FA000014651F8142F02924A680292029A0A6856
:103FB000120620D4002E00F0AB80721C51D10A688A
:103FC000520500F1AD800A68120614D40A68520541
:103FD00000F1A6800A6812060DD40A68520500F1A5
:103FE0009F800A68120606D40A68520500F198807C
:103FF0000A681206E3D5B9F1010F45D04FEA18213E
:104000000161014651F8142F12063DD4002E00F034
:104010007F80721C2AD10A68520500F181800A68EB
:10402000120631D40A6852057AD40A6812062BD4D3
:104030000A68520574D40A68120625D40A68520523
:104040006ED40A681206E6D51EE000BFFEF7C2FC79
:10405000401BB04261D82068014651F8142F120667
:10406000C9D408684005F1D55AE000BF086840058A
:1040700056D4FEF7AFFC401BB0424ED82068014634
:1040800051F8142F1206F1D55FFA88F1016101464B
:1040900051F8142F12061AD4D6B3721C33D10A6801
:1040A00052053DD40A68120611D40A68520537D465
:1040B0000A6812060BD40A68520531D40A6812063F
:1040C00005D40A6852052BD40A681206E7D50168A0
:1040D000002241F48071016020464FF00111334607
:1040E000009500F077F8002850D02068006844E080
:1040F000FEF770FC401BB0420FD82068014651F813
:10410000142F1206E3D408684005F1D508E000BF7B
:104110000868400504D4FEF75DFC202004E000BFE1
:104120006FF480600860042000212022216384F85D
:104130003D2084F83E10226C1043206484F83C102B
:10414000206C042841D12068016841F400710160AD
:10415000012003B0BDE8F083FEF73CFC00202021E5
:10416000206384F83D1084F83E00216C41F020016A
:104170002164216884F83C000868C00544BF4FF4FE
:1041800000702064032003B0BDE8F08347F0010C09
:1041900027680221C0F20101204632462B46C7F8AB
:1041A00010C003B0BDE8F04300F0B8B8FEF712FC51
:1041B000202000212022216384F83D2084F83E1035
:1041C000226C1043206484F83C10012003B0BDE849
:1041D000F08300002DE9F04105461446DDF8188013
:1041E00001F47F002A681E46B0F5803F8FB23FD1B0
:1041F00050693840C01BB0FA80F04009A04277D126
:10420000701C2BD0002E77D0FEF7E4FBA0EB08004B
:10421000B04273D8286840693840C01BB0FA80F0BB
:104220004009A042F0D063E050693840C01BB0FAAA
:1042300080F04009A0425BD150693840C01BB0FA01
:1042400080F04009A04253D150693840C01BB0FAF9
:1042500080F04009A0424FF000005DD15069384025
:10426000C01BB0FA80F04009A042DDD040E000BFA2
:1042700090693840C01BB0FA80F04009A04237D1A5
:10428000701C1DD0C6B300BFFEF7A4FBA0EB080056
:10429000B04233D8286880693840C01BB0FA80F03B
:1042A0004009A042F0D023E090693840C01BB0FA2A
:1042B00080F04009A0424FF0000018BFBDE8F08137
:1042C00090693840C01BB0FA80F04009A0420FD17D
:1042D00090693840C01BB0FA80F04009A04207D175
:1042E00090693840C01BB0FA80F04009A042DBD092
:1042F0000020BDE8F08100BFFEF76CFB002020210C
:10430000286385F83D1085F83E00296C41F02001B6
:10431000296485F83C000120BDE8F081F0B581B04A
:10432000044600681D4643698FB203EA0701B9429B
:1043300002D1002001B0F0BD4169164601321AD009
:1043400049050ED4A6B300BFFEF744FB401BB042A4
:1043500030D8206841693940B942EAD041694905FD
:10436000F2D5016841F4007101606FF48061416130
:10437000042020E041694905F3D441693940B9423C
:10438000D7D041694905ECD441693940B942D0D010
:1043900041694905E5D441693940B942C9D041690B
:1043A0004905DED441693940B942E3D1C1E700BFD4
:1043B000FEF710FB202000212022216384F83D20FD
:1043C00084F83E10226C1043206484F83C100120D5
:1043D00001B0F0BDFEE70000FEE7000070470000FE
:1043E0002DE9F04182B01E4690460D460446FEF788
:1043F000F1FA301A00EB0807FEF7ECFA40F2080178
:10440000C2F200010968C1F3CB31794301912168FF
:104410008A682A40AA4227D1064618F101001FD017
:10442000FEF7D8FA801BB84222D2019801990028E1
:10443000A1F1010101912168896808BF074601EADD
:104440000500A842ECD00FE088682840A8420BD1B4
:1044500088682840A84207D188682840A84203D12C
:1044600088682840A842EFD0002002B0BDE8F08163
:10447000D4E900014268B1F5827F22F0E002426097
:104480000AD1A168B1F5004F02D0B1F5806F03D118
:10449000016821F040010160A16AB1F5005F07D118
:1044A000016821F400510160016841F4005101608C
:1044B000012084F85100002084F85000032002B04D
:1044C000BDE8F08170470000FEF728BD4EF6885029
:1044D000CEF20000016841F47001016070470000F5
:1044E00040F2D050C2F20000FFF792BB10B5044674
:1044F0000068D4E902C22369016921F440511143E3
:104500000161626943EA0C01E3691143C26819431E
:1045100049F20C639A431143C1604169A26921F4D5
:10452000407141F20043114340F48062C4F2010340
:104530009A42416102D1FEF771FE01E0FEF75AFE98
:10454000E16963681922B1F5004FA0FB020123D194
:104550005A00DB0FFBF7B6FE48F21F51C5F2EB1114
:10456000A0FB01235A094FF69C73C0F6FF7303F1B9
:10457000805302FB0300322303EBC000A0FB0101C8
:104580004FF4F87000EA111000EB0210C1F3421171
:1045900008442168886010BD9A009B0FFBF792FECB
:1045A00048F21F51C5F2EB11A0FB01235A094FF647
:1045B0009C73C0F6FF7302FB0300322303EB001071
:1045C000A0FB0101F02000EA511000EB0210C1F342
:1045D000431108442168886010BD0000FEE7000018
:1045E00092B043F6300547F20006C4F20205C4F269
:1045F0000006FEF7A1FC06AC201D2C21FBF7D9FF1D
:1046000000270597CDE90377CDE901770097286961
:1046100040F080502861286900F080500090009898
:104620000097306840F440403060306800F440400B
:1046300000900098022006900120099010200A9016
:1046400020460C97FEF734FE20B1EFF3108072B6CF
:10465000FEE700BF0F20CDE901074FF48050CDE900
:10466000040701A800210397FEF712FD20B1EFF324
:10467000108072B6FEE700BF0024CDE90944019422
:10468000286806F5CC3740F00400286028688321AC
:1046900000F004000190019801942868002240F085
:1046A0000100286028684FF0830A00F001000190A3
:1046B00001980194286840F002002860286800F002
:1046C0000200019001983846FEF77EF906F5C838D9
:1046D00040464E2100224FF04E0BFEF775F906F5CD
:1046E000CA35284649210022FEF76EF94FF40050E2
:1046F00006904FF404100DF11809CDE9070438466F
:104700004946FEF791F8CDF818A04FF0010A384657
:104710004946CDE907A40994FEF786F84046494684
:10472000CDE906BACDE90844FEF77EF84920CDE987
:10473000060A28464946CDE90844FEF775F84FF4C5
:104740008660CDE90604284649460894FEF76CF8D1
:104750004FF48070CDE90604404649460894FEF7C0
:1047600063F840F2D05006F55841C2F200004FF411
:104770007A73102280E81600C0E903348461FFF7E1
:1047800041F928B1EFF3108072B600BFFEE700BF19
:1047900040F2DC40012206F53041C2F20000C0F6D2
:1047A00000720994047680F82040C0E90A24C0F819
:1047B0001CA080F83040C0E90014C0E90244C0E900
:1047C000044AFDF7B3FE28B1EFF3108072B600BFC4
:1047D000FEE700BF00240120CDE9070440F2DC40E1
:1047E000C2F2000006A90694FDF7E4FD20B1EFF344
:1047F000108072B6FEE700BF40F2245045F200413F
:10480000C2F20000C4F2000148F2A0624FF48043FB
:10481000C0F2010280E81600C0E90343C0E9054484
:10482000C0E90744FEF7DCF820B1EFF3108072B660
:10483000FEE700BF40F2700006F52041C2F2000022
:1048400040F8101F4FF4E13100240C22C0E901149C
:10485000C0E90344C0E90524C461FFF7C5FA28B1E3
:10486000EFF3108072B600BFFEE700BF40F2785051
:1048700006F54041C2F200004FF482724FF48023EB
:1048800080E816000A21C0E90344C0E90543C46179
:10489000C0E90844C0E90A41FEF7E2FE20B1EFF3A7
:1048A000108072B6FEE700BF40F2D050C2F20000A6
:1048B000FFF76AF9FCF7EAFCFCF7A0FA13A20C2058
:1048C0000021FDF72FFBFDF7FFF840F2C80644F684
:1048D000D35740F27004C2F20006C1F26207C2F27E
:1048E00000040DA500F024F8D6E90202A0FB0701A0
:1048F0008B0920462946FBF75DFD0C20202122462E
:10490000FDF710FBFDF7E0F8ECE700BF48656C6CC5
:104910006F204E696E6F210052756E3A2025646DCE
:10492000696E2025322E3064730000000000000004
:10493000B0B584B040F2DC40C2F20000FDF7D8FE12
:1049400040F2C500C2F200000178A9B30021017055
:10495000FDF706FB40F2DC40C2F20000FDF7E2FD8D
:10496000044600EE104A9FED1C1AB8EE400A80EE95
:10497000010A10EE100A00F07DFD9FED150B53ECBF
:10498000102B00F079FC6D4602460B4613A1284619
:10499000FBF710FD0C2010212A46FDF7C3FAFDF7A6
:1049A00093F84FF2B721A4F67560CFF6FF718842F5
:1049B00002D2012201E000BF00220020C4F2020066
:1049C0000221FEF701F804B0B0BD00BF00BF00BF78
:1049D0006666666666660A4000F07F45566F6C74D0
:1049E0006167653A2025322E336600005FEA400C8D
:1049F00008BF91F0000F4FEA8C234FEAC12243EA2F
:104A000051514FEA1C5018BF00F5F0404FEA3000FA
:104A100018BF41F000415FEA6C5C00F02980BCF1F6
:104A2000FF3F08BF40F080407047130C06BF1204E0
:104A30004FF0100C4FF0000C130E04BF12020CF1DB
:104A4000080C130F04BF12010CF1040C930F04BFE8
:104A500092000CF1020CD30F04BF52000CF1010CB8
:104A600011464FF00002A0F11F00A0EB0C007047B0
:104A700011F0004F08BF704731F000413FF4D5AF4F
:104A80000B0C06BF09044FF0100C4FF0000C0B0E7E
:104A900004BF09020CF1080C0B0F04BF09010CF153
:104AA000040C8B0F04BF89000CF1020CCB0F04BF68
:104AB00049000CF1010CCCF1200322FA03F341EA86
:104AC000030102FA0CF2A0EB0C0000F101007047A8
:104AD00023F07F4720F07F4C80EA030000F0004085
:104AE000ACEB070303F57C5303F1FF032DE9804989
:104AF00009B44FEA144324EA03484FEA154B25EA68
:104B00000B4E0FF2042606EB13273E7803FB0667D5
:104B1000C7F5000707FB06F64FEAD64606F1020680
:104B20004FEA543707FB066CCCF1005C4FEA1C4798
:104B30002CEA074C0CFB06F507FB06F404EB1546C4
:104B40004FEA961649085FEA320234BF00204FF060
:104B500000404FEAD13706FB07FC4FEA1C4C0CFB28
:104B60000BF7D21B03FB0CF761EB07010CFB0EF7F5
:104B7000B0EB074072EB17420CFB08F734BFA2EB17
:104B80000742B2EB074261EB17414FEA0C444FEA90
:104B9000910706FB07FC4FEA1C4C0CFB0BF7B0EB34
:104BA000C74072EB573203FB0CF734BFA2EBC7428E
:104BB000B2EBC74261EB57310CFB0EF7B0EBC7000D
:104BC00072EB57720CFB08F734BFA2EBC702B2EBD3
:104BD000C70261EB57714FEA816141EA92114FEAD6
:104BE000826242EA90124FEA806004EBCC04039F99
:104BF0004FEAD13706FB07FC4FEA1C4C0CFB0BF7C6
:104C0000D21B03FB0CF761EB07010CFB0EF7B0EBBB
:104C1000074072EB17420CFB08F734BFA2EB0742C8
:104C2000B2EB074261EB17414FEA8C5504EB9C2431
:104C30004FEA910706FB07FC4FEA1C4C0CFB0BF7F5
:104C4000B0EBC74072EB573203FB0CF734BFA2EB5B
:104C5000C742B2EBC74261EB57310CFB0EF7B0EB2A
:104C6000C70072EB57720CFB08F734BFA2EBC70208
:104C7000B2EBC70261EB57714FEA816141EA9211D1
:104C80004FEA826242EA90124FEA806015EB4C25AF
:104C900044F100044FEAD13706FB07FC4FEA1C4CF5
:104CA0000CFB0BF7D21B03FB0CF761EB07010CFBB2
:104CB0000EF7B0EB074072EB17420CFB08F734BF5E
:104CC000A2EB0742B2EB074261EB17414FEA813199
:104CD00041EA92414FEA823242EA90424FEA803002
:104CE0004FEA0C7615EB1C1544F1000448EA034327
:104CF0004EEA0B484FF0000EB2EB080C71EB0307C5
:104D000024BF624639464EEB0E0E4FF0000B0018E2
:104D1000524149414BEB0B0BB2EB080C71EB030713
:104D20007BF1000B24BF624639464EEB0E0E4FF06E
:104D3000000B0018524149414BEB0B0BB2EB080C36
:104D400071EB03077BF1000B24BF624639464EEB43
:104D50000E0E51EA020718BF46F0010616EB0E765A
:104D600055F1000254F1000103D5BDE88901BDE809
:104D70000088BDE88901BDE80048B619524141EB01
:104D80000101A3F10103704780807F7E7D7C7B7AE7
:104D90007978777676757473727171706F6E6E6DE7
:104DA0006C6C6B6A6A69686867666665646463638D
:104DB00062616160605F5F5E5E5D5D5C5C5B5B5A13
:104DC0005A59595858575756565555555454535380
:104DD00052525251515050504F4F4F4E4E4D4D4DDB
:104DE0004C4C4C4B4B4B4A4A4A4949494848484726
:104DF0004747474646464545454444444443434364
:104E000043424242424141419C46002B30D477000C
:104E10002BD04FEA37071CB503B44FF010004FF00A
:104E20001001BAF1000F06D0BCF1000FDCBF40F05A
:104E3000080040F008014FF000000FBCBDE8104032
:104E40000BF1010BBBF1010F08BF5FEA170722BF8F
:104E500012F1010211F101014FF0004143F1000391
:104E600000F0004043EA00007047F9D35708D0E74C
:104E700046EA06464FEA164613F1400F1FDD13F1CE
:104E8000200FDFBF16430A46002120335B42BED00D
:104E9000C3F1200746EA06464FEA164602FA07F72C
:104EA00046EA070622FA03F2C3F1200701FA07F7E0
:104EB00042EA070221FA03F14FF00003A7E746EAAE
:104EC000020646EA06464FEA164646EA0106BCBF17
:104ED00046EA0646360C4FF000034FF000024FF052
:104EE000000194E72DE9804C70B49A46934691E80E
:104EF000380007C831EA400C48BF34EA430C03D5F8
:104F0000FFF7E6FDFFF780FFF0BCBDE8008C2DE960
:104F1000804C70B49A46934691E8380007C810F068
:104F2000804F08BF13F0804F03D100F005F8FFF762
:104F30006BFFF0BCBDE8008C20F07F4723F07F4C76
:104F400080EA030000F0004007EB0C03A3F57C535C
:104F5000A3F1FE0392F0000F00F0B38095F0000F74
:104F600000F077802DE901494FEA114021EA00481D
:104F70004FEA144624EA064700FB06FC08FB06F647
:104F800007FB08F818EB06484CEB164C00FB07F73C
:104F900018EB07484CEB17404FEA124B22EA0B4E36
:104FA0004FEA154625EA06470BFB06FC0EFB06F604
:104FB00007FB0EFE1EEB064E4CEB164C0BFB07F7E9
:104FC0001EEB074E4CEB174B18EB0B0840F10000A3
:104FD00018EB0E0B58EB000840F100008F1A4FF051
:104FE00000014FF000063CBFC943661B14BFB5EB80
:104FF000040C00213CBFC943F61B4FEA174427EAC3
:1050000004454FEA1C472CEA074C04FB076205FBEA
:1050100007F70CFB05F616EB074642EB174204FBBD
:105020000CFC16EB0C4642EB1C421BEB060658EB45
:10503000020241414EEA8E0E46EA9E0601D5BDE8C7
:105040000189B619524141EB0101A3F10103BDE809
:1050500001894FEA144524EA05464FEA114721EA3F
:10506000074C05FB07F406FB07F70CFB06F111EBF9
:10507000074144EB174405FB0CFC11EB0C4144EBDE
:105080001C444FEA124722EA074C05FB07F206FBD5
:1050900007F70CFB06F616EB074642EB174205FB3B
:1050A0000CFC16EB0C4642EB1C456A1854F100014F
:1050B00048BF7047B619524141EB0101A3F101030A
:1050C000704795F0000F37D04FEA114221EA0246AF
:1050D0004FEA144724EA074C02FB07F106FB07F7E7
:1050E0000CFB06F414EB074441EB174102FB0CFCEC
:1050F00014EB0C4441EB1C414FEA154725EA074CE1
:1051000002FB07F506FB07F70CFB06F616EB074656
:1051100045EB174502FB0CFC16EB0C4645EB1C421D
:10512000121951F1000148BF7047B619524141EBC5
:105130000101A3F1010370474FEA144524EA054633
:105140004FEA114721EA074C05FB07F106FB07F779
:105150000CFB06F212EB074241EB174105FB0CFC7E
:1051600012EB0C4251EB1C414FF0000648BF704758
:10517000921841EB0101A3F10103704703B40198B8
:105180004100009850EAC12018BF04204A0D18BF02
:1051900040F0010040F2FF72B2EB515F08BF40F0F7
:1051A0000200012808BF052002B0704730380A28E5
:1051B00001D20120704700207047000010B500297F
:1051C0000AD00878002807D005487844FBF7D0FDBE
:1051D000002801D0002010BD0248784410BD000016
:1051E000720A00006A0A000021F0004201F0004348
:1051F000A2F16052B2F5801F28BFD2F17F6C0BD9AB
:105200005FEA001C43EAC20242EB507018BF7047CD
:1052100028BF20F001007047B2F5801FBCBF1846C0
:1052200070474FEA410C1CF5001F02D2084600F0FF
:105230009FB970B500F0CAF800000089FFF7F6BF0B
:105240004FF00040A0F58000704710F0004248BFCA
:105250004042B0FA80F310FA03F10AD0C3F11D0303
:1052600003F5806302EB03524FEA415002EBD12178
:1052700070474FF00000704770B5DFF848C11CEA76
:10528000111E1EBF1CEA13159EEA0C0F95EA0C0FA7
:1052900000F06F8081EA03044EEAD47EAE4421EA36
:1052A0004C1123EA4C1341F4801143F48013AEF106
:1052B0007F7EA1FB024CA0FB0365361955EB0C0564
:1052C000A1FB034C4CF10003A0FB021C16EB0C06E7
:1052D000654153F10003094218BF46F0010613F47B
:1052E000007F0BD14FEA03314FEA053041EA1551F7
:1052F00040EA165034036FF003020AE04FEAC3217C
:105300004FEAC52041EA555140EA5650F4026FF089
:10531000020202EB2E4201EB025585EACE710AD061
:105320005FEA440C18BF24F0004450F1000041F142
:10533000000120EAD47040F2FE7C624500D270BDCC
:10534000A84214BF4FF080444FF04044002E08BFE5
:105350000024BEF1806FA8BFA1F1C041BDE870403C
:1053600080F2828001F1C04101F000414FF0000065
:1053700070470CEA13159EEA0C0F18BF95EA0C0F44
:1053800006D081EA030E4FF000000EF0004170BD20
:1053900000F01CF88900013E00F007B800F009B8E1
:1053A0004FEA430C5FEA5C5C08D081EA030100F03D
:1053B0005BB84FEA410C5FEA5C5CF6D102494FF002
:1053C000000070470000FF070000F87F0EF1020E9A
:1053D0002EF0030E5EF8046B364205D4012A43EB2F
:1053E000030515F5001F12D8012841EB010C1CF52F
:1053F000001F0CD80ED14FEAD17C0CEB4C0C0CF1F9
:10540000020C15F5001F08BF4CEBD37C04E04FF0F5
:10541000080C01E04FEAD37C0CEB4C0526FA05F6AC
:1054200006F00706B6F1040C06D20EEB860CBDE8BA
:1054300070404CF0010C6047DFE80CF0090B0202F1
:105440004FF00041A1F500214FF0000070BD19465A
:105450001046012851EB010418BFD4F5001484BF95
:10546000002001F0004170BD0808A0F500114FEACE
:105470003101704743004FEAD30C4FEA3C0C4340E4
:105480001FBF40070CF1605113F0FE4F70471CF036
:10549000006F03D10CF00041002070470CF0004376
:1054A00043EA507040EACC0010B500F00EF800BF9F
:1054B000000000924FEA0001FFF7D6BF4FF0004115
:1054C000A1F500214FF0000070470EF1020E2EF002
:1054D000030E5EF8044B244204D44FEA4102B2F1B9
:1054E0007F4F11D84FEA4003B3F17F4F0CD80ED154
:1054F0004FEAD07C0CEB4C0C0CF1020CB2F17F4F5C
:1055000008BF4CEBD17C04E04FF0080C01E04FEAFF
:10551000D17C0CEB4C0324FA03F404F00704B4F13F
:10552000040C06D20EEB840CBDE810404CF0010CCC
:105530006047DFE80CF0070802024FF00040A0F5DA
:10554000800010BD0846420018BFD2F1807288BFAB
:1055500000F0004010BDF1EE100A4FF6FF71C0F2EE
:10556000C03120EA010040F04070E1EE100A7047BF
:10557000FF2141EAD050C0057047FBF775B9000024
:1055800002400000000000A00000000005400000F4
:10559000000000C8000000000C4000000000409C1B
:1055A00000000000194000000020BCBE0000000008
:1055B00034400000BFC91B8E00000004B54000004D
:1055C000504BCFD06607E2CF010000006C410000D5
:1055D0003E8251AADFEEA73401000000D94200004C
:1055E000DCB5A0E23A301F97FFFFFFFFB445000093
:1055F000FD25A0C8E9A3C14FFFFFFFFFFF3F00004B
:105600000000008000000000FF3F0000000000805C
:105610000000000000000000000000000102030480
:105620000607080900000000010203040000000052
:10563000000000000000000000000000000000F872
:1056400000000000000000330000000000100C0209
:10565000100C020000000000000000000040C078B4
:1056600040C0780000043F04043F040000708888B4
:10567000FC08300000182020FF211E00F008F080F8
:105680006018000000310C031E211E0000F0088885
:10569000700000001E21232C1927211000120E007B
:1056A000000000000000000000000000000000E01A
:1056B000180402000000000718204000000204182F
:1056C000E00000000040201807000000404080F08B
:1056D000804040000202010F0102020000000000B1
:1056E000E0000000000101010F01010100000000C5
:1056F00000000000009070000000000000000000AA
:105700000000000000010101010101000000000093
:105710000000000000303000000000000000000029
:10572000C0380400006018070000000000E0100806
:105730000810E000000F102020100F0000001010D3
:10574000F8000000000020203F2020000070080822
:105750000808F0000030282422213000003008081A
:10576000088870000018202121221C0000008040C1
:1057700030F8000000060524243F242400F888881F
:10578000880808000019202020110E0000E0108871
:1057900088900000000F112020201F00001808082A
:1057A000886818000000003E0100000000708808B2
:1057B00008887000001C222121221C0000F008082B
:1057C0000810E0000001122222110F00000000C0AA
:1057D000C000000000000030300000000000008029
:1057E00000000000000000E0000000000000804019
:1057F0002010080000010204081020000040404072
:105800004040400000020202020202000008102094
:1058100040800000002010080402010000704808C9
:10582000088870000000003037000000C030C82831
:10583000E810E000071827282F2817000000C038BC
:10584000E0000000203C23020227382008F8888866
:1058500088700000203F202020110E00C030080872
:1058600008083800071820202010080008F8080849
:105870000810E000203F202020100F0008F8888842
:10588000E8081000203F20202320180008F888880E
:10589000E8081000203F200003000000C030080886
:1058A0000838000007182020221E020008F808000F
:1058B0000008F808203F210101213F20000808F8D6
:1058C000080800000020203F2020000000000808F9
:1058D000F8080800C08080807F00000008F888C0B9
:1058E00028180800203F20012638200008F808006A
:1058F00000000000203F20202020300008F8F800A1
:10590000F8F80800203F013E013F200008F830C0B1
:105910000008F808203F200007183F00E0100808A2
:105920000810E0000F10202020100F0008F80808D1
:105930000808F000203F210101010000E0100808E4
:105940000810E0000F10282830504F0008F8888811
:1059500088887000203F2000030C302000708808E9
:10596000080838000038202121221C00180808F8F7
:10597000080818000000203F2000000008F8080078
:105980000008F808001F202020201F000878880049
:1059900000C83808000007380E01000008F800F8B9
:1059A00000F8080000033E013E030000081868806C
:1059B0008068180820302C03032C30200838C800D9
:1059C000C83808000000203F200000001008080828
:1059D000C83808002038262120201800000000FECA
:1059E000020202000000007F40404000000438C076
:1059F00000000000000000010638C00000020202A2
:105A0000FE000000004040407F0000000000040253
:105A10000204000000000000000000000000000080
:105A2000000000008080808080808080000202046E
:105A30000000000000000000000000000000808066
:105A40008000000000192424123F200010F0008084
:105A500080000000003F112020110E000000008097
:105A600080800000000E11202020110000008080A6
:105A70008090F000001F202020103F200000808038
:105A800080800000001F242424241700008080E070
:105A9000909020000020203F202000000000808007
:105AA00080808000006B94949493600010F00080DC
:105AB00080800000203F210000203F200080989837
:105AC000000000000020203F202000000000008097
:105AD0009898000000C08080807F000010F00000D7
